:020000040800F2
:10000000002800209D0C00082D0C0008330C00086F
:10001000390C00083F0C0008450C000800000000E7
:100020000000000000000000000000004B0C000871
:10003000570C000800000000630C00086F0C00085B
:10004000E50C0008E50C0008E50C0008E50C0008CC
:10005000E50C0008E50C0008E50C0008E50C0008BC
:10006000E50C0008E50C0008E50C0008E50C0008AC
:10007000E50C0008E50C0008E50C0008E50C00089C
:10008000E50C0008E50C0008E50C0008E50C00088C
:10009000E50C0008E50C0008E50C0008E50C00087C
:1000A000E50C0008E50C0008E50C0008E50C00086C
:1000B0007D0C0008E50C000800000000E50C0008BD
:1000C000E50C00080000000000000000E50C00083E
:1000D00000000000E50C0008E50C0008000000002E
:1000E000E50C0008E50C0008E50C00080000000025
:1000F0000000000000000000000000000000000000
:0C01000000000000000000005FF808F1A3
:10010C0010B5054C237833B9044B13B10448AFF345
:10011C0000800123237010BD280000200000000087
:10012C000823000808B5034B1BB103490348AFF380
:10013C00008008BD000000002C00002008230008EF
:10014C0080B500AF00F0CAFD00F04AF800F0D0F81E
:10015C0000F082F81F4801F00DFD0A2000F05CFC55
:10016C000A2000F073FC0A2000F08AFC00F0E4FC8A
:10017C000346002B0BD02021174801F0B3F81021B7
:10018C00154801F0AFF84FF47A7000F045FC00F020
:10019C00DDFC0346002B12D0104B1B680622934249
:1001AC0002DB0E4B00221A600C4B1B685A1C0B49CD
:1001BC000A60184600F08CFA642000F047FC00F04E
:1001CC00CFFC0346002BD1D000F0A0FB642000F044
:1001DC0057FCCBE744000020000801408C000020B5
:1001EC0080B590B000AF07F1180328220021184603
:1001FC0002F058F83B1D00221A605A609A60DA60CF
:10020C001A610223BB610123BB621023FB62002332
:10021C007B6307F11803184601F07EF80346002BA8
:10022C0001D000F0F3FB0F237B600023BB600023A5
:10023C00FB6000233B6100237B613B1D00211846C2
:10024C0001F0ECFA0346002B01D000F0DFFB00BFFD
:10025C004037BD4680BD000080B586B000AF07F1C9
:10026C00080300221A605A609A60DA603B4600224A
:10027C001A605A601D4B4FF080421A601B4B41F6BE
:10028C003F725A60194B00229A60184B0922DA60AF
:10029C00164B00221A61154B00229A61134801F08B
:1002AC0019FC0346002B01D000F0B0FB4FF4805337
:1002BC00BB6007F1080319460C4801F0AFFD03467B
:1002CC00002B01D000F0A2FB00233B6000237B60DD
:1002DC003B461946054801F07BFF0346002B01D035
:1002EC0000F094FB00BF1837BD4680BD44000020D1
:1002FC0080B586B000AF07F1080300221A605A607F
:10030C009A60DA60224B9B69214A43F004039361A3
:10031C001F4B9B6903F004037B607B681C4B9B6940
:10032C001B4A43F008039361194B9B6903F00803C4
:10033C003B603B6800224FF6FE71164800F0BAFF96
:10034C0000224FF6FF71144800F0B4FF4FF6FE7315
:10035C00BB600123FB6000233B6102237B6107F13F
:10036C00080319460B4800F029FE4FF6FF73BB60DB
:10037C000123FB6000233B6102237B6107F108032F
:10038C001946054800F01AFE00BF1837BD4680BD5F
:10039C000010024000080140000C014080B582B002
:1003AC0000AF786000F086FB00BF0837BD4680BD0B
:1003BC0080B582B000AF78607B68092B00F2808139
:1003CC0001A252F823F000BFFD0300084504000809
:1003DC008D040008D50400081D05000865050008FB
:1003EC00AD050008F50500083D0600088506000867
:1003FC0000220121B54800F05DFF00220221B34824
:10040C0000F058FF00220421B04800F053FF0022F6
:10041C000821AE4800F04EFF00221021AB4800F03E
:10042C0049FF00222021A94800F044FF012240216D
:10043C00A64800F03FFF44E101220121A34800F04F
:10044C0039FF00220221A14800F034FF00220421D0
:10045C009E4800F02FFF012208219C4800F02AFF43
:10046C0001221021994800F025FF012220219748F4
:10047C0000F020FF01224021944800F01BFF20E1F6
:10048C0000220121914800F015FF002202218F4823
:10049C0000F010FF012204218C4800F00BFF002219
:1004AC0008218A4800F006FF00221021874800F03E
:1004BC0001FF01222021854800F0FCFE0022402192
:1004CC00824800F0F7FEFCE0002201217F4800F09A
:1004DC00F1FE002202217D4800F0ECFE00220421F6
:1004EC007A4800F0E7FE00220821784800F0E2FE8E
:1004FC0001221021754800F0DDFE012220217348F5
:10050C0000F0D8FE00224021704800F0D3FED8E065
:10051C00012201216D4800F0CDFE002202216B4822
:10052C0000F0C8FE00220421684800F0C3FE01223E
:10053C000821664800F0BEFE01221021634800F03D
:10054C00B9FE00222021614800F0B4FE00224021B7
:10055C005E4800F0AFFEB4E0002201215B4800F0E1
:10056C00A9FE01220221594800F0A4FE0022042118
:10057C00564800F09FFE00220821544800F09AFED5
:10058C0001221021514800F095FE002220214F48F5
:10059C0000F090FE002240214C4800F08BFE90E0D1
:1005AC0000220121494800F085FE01220221474822
:1005BC0000F080FE00220421444800F07BFE002263
:1005CC000821424800F076FE002210213F4800F03E
:1005DC0071FE002220213D4800F06CFE00224021DB
:1005EC003A4800F067FE6CE000220121374800F029
:1005FC0061FE00220221354800F05CFE002204213D
:10060C00324800F057FE01220821304800F052FE1B
:10061C00012210212D4800F04DFE012220212B48F3
:10062C0000F048FE01224021284800F043FE48E03B
:10063C0000220121254800F03DFE00220221234822
:10064C0000F038FE00220421204800F033FE002286
:10065C0008211E4800F02EFE002210211B4800F03D
:10066C0029FE00222021194800F024FE00224021FE
:10067C00164800F01FFE24E000220121134800F070
:10068C0019FE00220221114800F014FE0022042160
:10069C000E4800F00FFE002208210C4800F00AFE64
:1006AC0001221021094800F005FE002220210748F4
:1006BC0000F000FE00224021044800F0FBFD00E0A9
:1006CC0000BF00BF0837BD4680BD00BF000C014015
:1006DC0080B582B000AF78607B68052B00F20C818E
:1006EC0001A252F823F000BF0D07000861070008B3
:1006FC00B5070008090800085D080008B1080008E3
:10070C0001224FF400617F4800F0D4FD01224FF428
:10071C0080617C4800F0CEFD01224FF400717948D5
:10072C0000F0C8FD01224FF48071764800F0C2FD44
:10073C0001228021734800F0BDFD00224021714848
:10074C0000F0B8FD704A7B6852F823301846FFF76A
:10075C002FFED2E0012240216A4800F0ABFD0122BD
:10076C004FF40061674800F0A5FD01224FF4806151
:10077C00644800F09FFD01224FF40071614800F0C5
:10078C0099FD01224FF480715E4800F093FD002228
:10079C0080215C4800F08EFD5B4A7B6852F8233068
:1007AC001846FFF705FEA8E001228021554800F00D
:1007BC0081FD01224021534800F07CFD01224FF4C1
:1007CC000061504800F076FD01224FF480614D48E5
:1007DC0000F070FD01224FF400714A4800F06AFDF0
:1007EC0000224FF48071474800F064FD464A7B6854
:1007FC0052F823301846FFF7DBFD7EE001224FF460
:10080C008071404800F056FD012280213D4800F0E7
:10081C0051FD012240213B4800F04CFD01224FF4D8
:10082C000061384800F046FD01224FF480613548E4
:10083C0000F040FD00224FF40071324800F03AFD08
:10084C00314A7B6852F823301846FFF7B1FD54E06B
:10085C0001224FF400712B4800F02CFD01224FF4C3
:10086C008071284800F026FD01228021254800F0E7
:10087C0021FD01224021234800F01CFD01224FF4F0
:10088C000061204800F016FD00224FF480611D48E5
:10089C0000F010FD1C4A7B6852F823301846FFF715
:1008AC0087FD2AE001224FF48061164800F002FD1A
:1008BC0001224FF40071134800F0FCFC01224FF4AC
:1008CC008071104800F0F6FC012280210D4800F0E8
:1008DC00F1FC012240210B4800F0ECFC00224FF40B
:1008EC000061084800F0E6FC074A7B6852F82330A8
:1008FC001846FFF75DFD00E000BF00BF0837BD469E
:10090C0080BD00BF000801400000002080B400AF93
:10091C00394B1B680133384A1360374B1B683B2B30
:10092C001ADD354B00221A60344B1B680133334AF5
:10093C001360324B1B683B2B0EDD304B00221A60D0
:10094C002F4B1B6801332E4A13602D4B1B68172B42
:10095C0002DD2B4B00221A60274B1B68294A82FBB5
:10096C0003129210DB17D31A274A1361224B196812
:10097C00244B83FB01239A10CB17D21A13469B00EE
:10098C0013445B00CA1A204B5A611C4B1B681D4A4E
:10099C0082FB03129210DB17D31A1B4A9360174B7E
:1009AC001968184B83FB01239A10CB17D21A1346E4
:1009BC009B0013445B00CA1A134BDA60104B1B6884
:1009CC00104A82FB03129210DB17D31A0E4A1360E3
:1009DC000B4B19680B4B83FB01239A10CB17D21AC4
:1009EC0013469B0013445B00CA1A074B5A6000BFA6
:1009FC00BD4680BC704700BF9800002094000020CA
:100A0C0090000020676666660000002080B400AF8E
:100A1C0072B600BFFEE7000080B483B000AF786010
:100A2C00074B1B687A6892FBF3F3064A1360064B7C
:100A3C0000221A6000BF0C37BD4680BC704700BF57
:100A4C00180000209C000020A000002080B483B07F
:100A5C0000AF7860074B1B687A6892FBF3F3064A89
:100A6C001360064B00221A6000BF0C37BD4680BCD9
:100A7C00704700BF18000020A4000020A800002030
:100A8C0080B483B000AF7860074B1B687A6892FB28
:100A9C00F3F3064A1360064B00221A6000BF0C37B2
:100AAC00BD4680BC704700BF18000020AC00002081
:100ABC00B000002080B400AF194B1B68002B0BDD7D
:100ACC00174B1B68013B164A1360154B1B68002B18
:100ADC0002DC144B01221A60134B1B68002B0BDD3C
:100AEC00114B1B68013B104A13600F4B1B68002B0A
:100AFC0002DC0E4B01221A600D4B1B68002B0BDD28
:100B0C000B4B1B68013B0A4A1360094B1B68002BFB
:100B1C0002DC084B01221A6000BFBD4680BC704746
:100B2C009C000020A0000020A4000020A8000020B1
:100B3C00AC000020B000002080B400AF024B1B685A
:100B4C001846BD4680BC7047A000002080B400AFA2
:100B5C00024B1B681846BD4680BC7047A80000209D
:100B6C0080B400AF024B1B681846BD4680BC704772
:100B7C00B000002080B485B000AF154B9B69144ABF
:100B8C0043F001039361124B9B6903F00103BB60BB
:100B9C00BB680F4BDB690E4A43F08053D3610C4B9F
:100BAC00DB6903F080537B607B680A4B5B68FB60FE
:100BBC00FB6823F0E063FB60FB6843F08063FB6041
:100BCC00044AFB68536000BF1437BD4680BC7047B5
:100BDC00001002400000014080B584B000AF786086
:100BEC007B681B68B3F1804F13D10C4BDB690B4A4C
:100BFC0043F00103D361094BDB6903F00103FB6094
:100C0C00FB68002200211C2000F0A1F91C2000F040
:100C1C00BAF900BF1037BD4680BD00BF00100240BE
:100C2C0080B400AFFEE780B400AFFEE780B400AF45
:100C3C00FEE780B400AFFEE780B400AFFEE780B4FF
:100C4C0000AF00BFBD4680BC704780B400AF00BF92
:100C5C00BD4680BC704780B400AF00BFBD4680BCB1
:100C6C00704780B500AF00F07FF800BF80BD00007A
:100C7C0080B500AF024800F0C9FF00BF80BD00BFC7
:100C8C004400002080B400AF00BFBD4680BC70475C
:100C9C00FFF7F8FF0B480C490C4A002302E0D4582C
:100CAC00C4500433C4188C42F9D3094A094C0023AC
:100CBC0001E013600432A242FBD301F0FBFAFFF710
:100CCC003FFA704700000020280000204C23000849
:100CDC0028000020B8000020FEE7000080B500AF1F
:100CEC00084B1B68074A43F010031360032000F005
:100CFC0023F90F2000F008F8FFF73CFF00231846FB
:100D0C0080BD00BF0020024080B582B000AF78608B
:100D1C00124B1A68124B1B7819464FF47A73B3FBBB
:100D2C00F1F3B2FBF3F3184600F03BF90346002B4A
:100D3C0001D001230EE07B680F2B0AD800227968C2
:100D4C004FF0FF3000F003F9064A7B681360002374
:100D5C0000E0012318460837BD4680BD1C0000206A
:100D6C00240000202000002080B400AF054B1B782D
:100D7C001A46054B1B681344034A136000BFBD465B
:100D8C0080BC704724000020B400002080B400AF69
:100D9C00024B1B681846BD4680BC7047B40000204F
:100DAC0080B485B000AF78607B6803F00703FB600C
:100DBC000C4BDB68BB60BA684FF6FF031340BB609B
:100DCC00FB681A02BB68134343F0BF6343F4003360
:100DDC00BB60044ABB68D36000BF1437BD4680BCFF
:100DEC00704700BF00ED00E080B400AF044BDB683F
:100DFC001B0A03F007031846BD4680BC704700BFB2
:100E0C0000ED00E080B483B000AF0346FB7197F9AE
:100E1C000730002B0BDBFB7903F01F02064997F917
:100E2C0007305B09012000FA02F241F8232000BFD1
:100E3C000C37BD4680BC704700E100E080B483B045
:100E4C0000AF03463960FB7197F90730002B0ADBC2
:100E5C003B68DAB20C4997F907301201D2B20B4455
:100E6C0083F800230AE03B68DAB20849FB7903F007
:100E7C000F03043B1201D2B20B441A7600BF0C379D
:100E8C00BD4680BC704700BF00E100E000ED00E013
:100E9C0080B489B000AFF860B9607A60FB6803F089
:100EAC000703FB61FB69C3F10703042B28BF042371
:100EBC00BB61FB690433062B02D9FB69033B00E0E1
:100ECC0000237B614FF0FF32BB6902FA03F3DA4374
:100EDC00BB681A407B699A404FF0FF317B6901FA7D
:100EEC0003F3D9437B680B40134318462437BD46A4
:100EFC0080BC704780B582B000AF78607B68013BE6
:100F0C00B3F1807F01D301230FE00A4A7B68013BD8
:100F1C0053600F214FF0FF30FFF790FF054B00227D
:100F2C009A60044B07221A60002318460837BD4606
:100F3C0080BD00BF10E000E080B582B000AF7860EB
:100F4C007868FFF72DFF00BF0837BD4680BD80B520
:100F5C0086B000AF0346B9607A60FB7300237B61F7
:100F6C00FFF742FF78617A68B9687869FFF790FFFC
:100F7C00024697F90F3011461846FFF75FFF00BF86
:100F8C001837BD4680BD80B582B000AF0346FB71FB
:100F9C0097F907301846FFF735FF00BF0837BD46F5
:100FAC0080BD80B582B000AF78607868FFF7A2FF93
:100FBC00034618460837BD4680BD000080B48BB090
:100FCC0000AF7860396000237B6200233B6261E1F3
:100FDC0001227B6A02FA03F3FB613B681B68FA6926
:100FEC001340BB61BA69FB699A4240F050813B687F
:100FFC005B68974A93425ED0954A934275D8954A5E
:10100C00934258D0934A93426FD8934A934252D00A
:10101C00914A934269D8914A93424CD08F4A934259
:10102C0063D88F4A934246D08D4A93425DD8122B97
:10103C002AD8122B59D801A252F823F0C310000859
:10104C009D100008AF100008F1100008F710000800
:10105C00F7100008F7100008F7100008F710000848
:10106C00F7100008F7100008F7100008F710000838
:10107C00F7100008F7100008F7100008F710000828
:10108C00A5100008B9100008764A934213D02CE042
:10109C003B68DB683B6229E03B68DB6804333B62FE
:1010AC0024E03B68DB6808333B621FE03B68DB688D
:1010BC000C333B621AE03B689B68002B02D1042383
:1010CC003B6213E03B689B68012B05D108233B6214
:1010DC007B68FA691A6109E008233B627B68FA694C
:1010EC005A6103E000233B6200E000BFBB69FF2BA9
:1010FC0001D87B6801E07B6804337B61BB69FF2B03
:10110C0002D87B6A9B0002E07B6A083B9B003B6138
:10111C007B691A680F213B6901FA03F3DB431A4020
:10112C00396A3B6901FA03F31A437B691A603B681D
:10113C005B6803F08053002B00F0A9804A4B9B693D
:10114C00494A43F001039361474B9B6903F0010348
:10115C00BB60BB68454A7B6A9B08023352F823305C
:10116C00FB607B6A03F003039B000F2202FA03F37C
:10117C00DB43FA681340FB607B683D4A93420DD019
:10118C007B683C4A934207D07B683B4A934201D12F
:10119C00022304E0032302E0012300E000237A6A27
:1011AC0002F0030292009340FA681343FB602F494C
:1011BC007B6A9B080233FA6841F823203B685B6822
:1011CC0003F48013002B06D02C4B9A682B49BB6977
:1011DC0013438B6006E0294B9A68BB69DB432749B4
:1011EC0013408B603B685B6803F40013002B06D044
:1011FC00224BDA682149BB691343CB6006E01F4BD5
:10120C00DA68BB69DB431D491340CB603B685B6804
:10121C0003F40033002B06D0184B5A681749BB69EE
:10122C0013434B6006E0154B5A68BB69DB4313490B
:10123C0013404B603B685B6803F48033002B1FD07A
:10124C000E4B1A680D49BB6913430B601FE000BFBE
:10125C00000032100000311000002210000021109C
:10126C00000012100000111000100240000001409C
:10127C0000080140000C0140001001400004014036
:10128C000B4B1A68BB69DB43094913400B607B6A43
:10129C0001337B623B681A687B6A22FA03F3002BEA
:1012AC007FF496AE00BF00BF2C37BD4680BC7047A4
:1012BC000004014080B483B000AF78600B467B80A3
:1012CC0013467B707B78002B03D07A887B681A617D
:1012DC0003E07B881A047B681A6100BF0C37BD469B
:1012EC0080BC704780B485B000AF78600B467B80C3
:1012FC007B68DB68FB607A88FB6813401A04FB6828
:10130C00D9437B880B401A437B681A6100BF1437A2
:10131C00BD4680BC7047000080B586B000AF7860D9
:10132C007B68002B01D1012372E27B681B6803F000
:10133C000103002B00F08780924B5B6803F00C03D9
:10134C00042B0CD08F4B5B6803F00C03082B12D1D1
:10135C008C4B5B6803F48033B3F5803F0BD1894B26
:10136C001B6803F40033002B6CD07B685B68002B8C
:10137C0068D101234CE27B685B68B3F5803F06D1F2
:10138C00804B1B687F4A43F4803313602EE07B68EC
:10139C005B68002B0CD17B4B1B687A4A23F480339F
:1013AC001360784B1B68774A23F4802313601DE08D
:1013BC007B685B68B3F5A02F0CD1724B1B68714A2C
:1013CC0043F4802313606F4B1B686E4A43F48033E5
:1013DC0013600BE06B4B1B686A4A23F48033136079
:1013EC00684B1B68674A23F4802313607B685B6837
:1013FC00002B13D0FFF7CAFC386108E0FFF7C6FCDE
:10140C0002463B69D31A642B01D9032300E25D4BDE
:10141C001B6803F40033002BF0D014E0FFF7B6FC8C
:10142C00386108E0FFF7B2FC02463B69D31A642B23
:10143C0001D90323ECE1534B1B6803F40033002B5D
:10144C00F0D100E000BF7B681B6803F00203002BA7
:10145C0063D04C4B5B6803F00C03002B0BD0494B57
:10146C005B6803F00C03082B1CD1464B5B6803F440
:10147C008033002B16D1434B1B6803F00203002B67
:10148C0005D07B681B69012B01D00123C0E13D4BCA
:10149C001B6823F0F8027B685B69DB003949134356
:1014AC000B603AE07B681B69002B20D0364B012285
:1014BC001A60FFF76BFC386108E0FFF767FC024627
:1014CC003B69D31A022B01D90323A1E12D4B1B68D5
:1014DC0003F00203002BF0D02A4B1B6823F0F80218
:1014EC007B685B69DB00274913430B6015E0264BD7
:1014FC0000221A60FFF74AFC386108E0FFF746FC4F
:10150C0002463B69D31A022B01D9032380E11D4B00
:10151C001B6803F00203002BF0D17B681B6803F0FF
:10152C000803002B3AD07B689B69002B19D0174B12
:10153C0001221A60FFF72AFC386108E0FFF726FC4D
:10154C0002463B69D31A022B01D9032360E10D4BF0
:10155C005B6A03F00203002BF0D0012000F09CFA30
:10156C001CE00A4B00221A60FFF710FC38610FE0F8
:10157C00FFF70CFC02463B69D31A022B08D9032354
:10158C0046E100BF0010024000004242800442428B
:10159C00924B5B6A03F00203002BE9D17B681B685A
:1015AC0003F00403002B00F0A6800023FB758B4B8B
:1015BC00DB6903F08053002B0DD1884BDB69874A24
:1015CC0043F08053D361854BDB6903F08053BB60E0
:1015DC00BB680123FB75824B1B6803F48073002BE3
:1015EC0018D17F4B1B687E4A43F480731360FFF75E
:1015FC00CDFB386108E0FFF7C9FB02463B69D31A03
:10160C00642B01D9032303E1754B1B6803F480732E
:10161C00002BF0D07B68DB68012B06D16F4B1B6A6B
:10162C006E4A43F0010313622DE07B68DB68002BEC
:10163C000CD16A4B1B6A694A23F001031362674B96
:10164C001B6A664A23F0040313621CE07B68DB68A8
:10165C00052B0CD1614B1B6A604A43F004031362E7
:10166C005E4B1B6A5D4A43F0010313620BE05B4B5C
:10167C001B6A5A4A23F001031362584B1B6A574AE0
:10168C0023F0040313627B68DB68002B15D0FFF793
:10169C007DFB38610AE0FFF779FB02463B69D31A00
:1016AC0041F28832934201D90323B1E04B4B1B6AC0
:1016BC0003F00203002BEED014E0FFF767FB386158
:1016CC000AE0FFF763FB02463B69D31A41F288320A
:1016DC00934201D903239BE0404B1B6A03F00203A6
:1016EC00002BEED1FB7D012B05D13C4BDB693B4A3A
:1016FC0023F08053D3617B68DB69002B00F087807B
:10170C00364B5B6803F00C03082B61D07B68DB69FC
:10171C00022B46D1334B00221A60FFF737FB38619E
:10172C0008E0FFF733FB02463B69D31A022B01D9C1
:10173C0003236DE0294B1B6803F00073002BF0D1E1
:10174C007B681B6AB3F5803F08D1244B5B6823F49C
:10175C0000327B689B68214913434B601F4B5B68CD
:10176C0023F474127B68196A7B685B6A0B431B4910
:10177C0013434B601B4B01221A60FFF707FB3861C8
:10178C0008E0FFF703FB02463B69D31A022B01D991
:10179C0003233DE0114B1B6803F00073002BF0D0CA
:1017AC0035E0104B00221A60FFF7F0FA386108E0C0
:1017BC00FFF7ECFA02463B69D31A022B01D903233B
:1017CC0026E0064B1B6803F00073002BF0D11EE0E3
:1017DC007B68DB69012B07D1012319E00010024063
:1017EC0000700040600042420B4B5B68FB60FB6882
:1017FC0003F480327B681B6A9A4206D1FB6803F4BF
:10180C0070127B685B6A9A4201D0012300E00023CE
:10181C0018461837BD4680BD0010024080B584B014
:10182C0000AF786039607B68002B01D10123D0E0D8
:10183C006A4B1B6803F007033A689A4210D9674B4E
:10184C001B6823F0070265493B6813430B60634B2D
:10185C001B6803F007033A689A4201D00123B8E0F1
:10186C007B681B6803F00203002B20D07B681B688D
:10187C0003F00403002B05D0594B5B68584A43F422
:10188C00E06353607B681B6803F00803002B05D0F2
:10189C00534B5B68524A43F460535360504B5B6844
:1018AC0023F0F0027B689B684D4913434B607B68C7
:1018BC001B6803F00103002B40D07B685B68012B95
:1018CC0007D1474B1B6803F40033002B15D10123C0
:1018DC007FE07B685B68022B07D1414B1B6803F0F0
:1018EC000073002B09D1012373E03D4B1B6803F0FF
:1018FC000203002B01D101236BE0394B5B6823F011
:10190C0003027B685B68364913434B60FFF73EFA72
:10191C00F8600AE0FFF73AFA0246FB68D31A41F284
:10192C008832934201D9032353E02D4B5B6803F0BB
:10193C000C027B685B689B009A42EBD1274B1B68BF
:10194C0003F007033A689A4210D2244B1B6823F029
:10195C00070222493B6813430B60204B1B6803F0C2
:10196C0007033A689A4201D0012332E07B681B6876
:10197C0003F00403002B08D0194B5B6823F4E062DE
:10198C007B68DB68164913434B607B681B6803F06C
:10199C000803002B09D0124B5B6823F460527B6860
:1019AC001B69DB000E4913434B6000F021F8024623
:1019BC000B4B5B681B0903F00F030A49CB5C22FA43
:1019CC0003F3094A1360094B1B681846FFF79CF98F
:1019DC00002318461037BD4680BD00BF00200240D2
:1019EC0000100240202300081C00002020000020D2
:1019FC0080B487B000AF0023FB600023BB600023E2
:101A0C007B6100237B6000233B611E4B5B68FB60AA
:101A1C00FB6803F00C03042B02D0082B03D027E047
:101A2C00194B3B6127E0FB689B0C03F00F03174A33
:101A3C00D35C7B60FB6803F48033002B10D0114B1C
:101A4C005B685B0C03F00103114AD35CBB607B68E1
:101A5C000D4A03FB02F2BB68B2FBF3F37B6104E0BB
:101A6C007B680C4A02FB03F37B617B693B6102E000
:101A7C00054B3B6100BF3B6918461C37BD4680BC1B
:101A8C00704700BF0010024000127A00302300089B
:101A9C004023000800093D0080B485B000AF786099
:101AAC000A4B1B680A4AA2FB03235B0A7A6802FBF7
:101ABC0003F3FB6000BFFB685A1EFA60002BF9D1E0
:101ACC0000BF00BF1437BD4680BC70471C0000200F
:101ADC00D34D621080B582B000AF78607B68002B6C
:101AEC0001D1012341E07B6893F83D30DBB2002B40
:101AFC0006D17B68002283F83C207868FFF76CF8ED
:101B0C007B68022283F83D207B681A687B6804336B
:101B1C001946104600F06EFA7B68012283F84620C5
:101B2C007B68012283F83E207B68012283F83F20EA
:101B3C007B68012283F840207B68012283F84120D6
:101B4C007B68012283F842207B68012283F84320C2
:101B5C007B68012283F844207B68012283F84520AE
:101B6C007B68012283F83D20002318460837BD46C8
:101B7C0080BD000080B485B000AF78607B6893F8BE
:101B8C003D30DBB2012B01D0012335E07B68022212
:101B9C0083F83D207B681B68DA687B681B6842F021
:101BAC000102DA607B681B68164A934209D07B6895
:101BBC001B68B3F1804F04D07B681B68124A9342B8
:101BCC0011D17B681B689B6803F00703FB60FB6803
:101BDC00062B10D07B681B681A687B681B6842F068
:101BEC0001021A6007E07B681B681A687B681B6837
:101BFC0042F001021A60002318461437BD4680BC1F
:101C0C00704700BF002C01400004004080B582B03A
:101C1C0000AF78607B681B681B6903F00203022B22
:101C2C0022D17B681B68DB6803F00203022B1BD1FB
:101C3C007B681B686FF002021A617B6801221A77BD
:101C4C007B681B689B6903F00303002B03D0786847
:101C5C0000F0B4F905E0786800F0A7F9786800F0B6
:101C6C00B6F97B6800221A777B681B681B6903F046
:101C7C000403042B22D17B681B68DB6803F004038C
:101C8C00042B1BD17B681B686FF004021A617B6804
:101C9C0002221A777B681B689B6903F44073002B44
:101CAC0003D0786800F08AF905E0786800F07DF9D7
:101CBC00786800F08CF97B6800221A777B681B68C7
:101CCC001B6903F00803082B22D17B681B68DB68B7
:101CDC0003F00803082B1BD17B681B686FF008020C
:101CEC001A617B6804221A777B681B68DB6903F036
:101CFC000303002B03D0786800F060F905E07868E6
:101D0C0000F053F9786800F062F97B6800221A77CA
:101D1C007B681B681B6903F01003102B22D17B68B6
:101D2C001B68DB6803F01003102B1BD17B681B684E
:101D3C006FF010021A617B6808221A777B681B68A7
:101D4C00DB6903F44073002B03D0786800F036F99C
:101D5C0005E0786800F029F9786800F038F97B68BC
:101D6C0000221A777B681B681B6903F00103012BA7
:101D7C000ED17B681B68DB6803F00103012B07D1D4
:101D8C007B681B686FF001021A617868FEF706FB2E
:101D9C007B681B681B6903F08003802B0ED17B686A
:101DAC001B68DB6803F08003802B07D17B681B6802
:101DBC006FF080021A61786800F06BFA7B681B6820
:101DCC001B6903F04003402B0ED17B681B68DB685A
:101DDC0003F04003402B07D17B681B686FF0400277
:101DEC001A61786800F0FCF87B681B681B6903F0CB
:101DFC002003202B0ED17B681B68DB6803F02003CB
:101E0C00202B07D17B681B686FF020021A61786861
:101E1C0000F036FA00BF0837BD4680BD80B584B0EF
:101E2C0000AF786039600023FB737B6893F83C301B
:101E3C00012B01D10223B4E07B68012283F83C2002
:101E4C007B68022283F83D207B681B689B68BB6023
:101E5C00BB6823F07703BB60BB6823F47F43BB6094
:101E6C007B681B68BA689A603B681B68B3F5005FB7
:101E7C003ED0B3F5005F00F28780B3F5805F00F0D1
:101E8C008680B3F5805F7FD8702B1AD0702B7BD8EF
:101E9C00602B50D0602B77D8502B3CD0502B73D864
:101EAC00402B58D0402B6FD8302B64D0302B6BD8B4
:101EBC00202B60D0202B67D8002B5CD0102B5AD055
:101ECC0062E07B6818683B6899683B685A683B68B5
:101EDC00DB6800F05EF97B681B689B68BB60BB68C5
:101EEC0043F07703BB607B681B68BA689A604FE06D
:101EFC007B6818683B6899683B685A683B68DB6884
:101F0C0000F047F97B681B689A687B681B6842F491
:101F1C0080429A603CE07B6818683B6859683B6873
:101F2C00DB681A4600F0BEF87B681B685021184627
:101F3C0000F015F92CE07B6818683B6859683B6821
:101F4C00DB681A4600F0DCF87B681B6860211846D9
:101F5C0000F005F91CE07B6818683B6859683B6821
:101F6C00DB681A4600F09EF87B681B684021184617
:101F7C0000F0F5F80CE07B681A683B681B681946A2
:101F8C00104600F0ECF803E00123FB7300E000BF07
:101F9C007B68012283F83D207B68002283F83C207B
:101FAC00FB7B18461037BD4680BD80B483B000AFB4
:101FBC00786000BF0C37BD4680BC704780B483B0DE
:101FCC0000AF786000BF0C37BD4680BC704780B452
:101FDC0083B000AF786000BF0C37BD4680BC704743
:101FEC0080B483B000AF786000BF0C37BD4680BCB6
:101FFC007047000080B485B000AF786039607B68B2
:10200C001B68FB607B68254A934207D07B68B3F161
:10201C00804F03D07B68224A934208D1FB6823F09F
:10202C007003FB603B685B68FA681343FB607B687A
:10203C001A4A934207D07B68B3F1804F03D07B6878
:10204C00174A934208D1FB6823F44073FB603B684A
:10205C00DB68FA681343FB60FB6823F080023B6883
:10206C005B691343FB607B68FA681A603B689A688B
:10207C007B68DA623B681A687B689A627B68074AFD
:10208C00934203D13B681A697B681A637B6801220F
:10209C005A6100BF1437BD4680BC7047002C01400C
:1020AC000004004080B487B000AFF860B9607A607B
:1020BC00FB681B6A7B61FB681B6A23F00102FB68EF
:1020CC001A62FB689B693B613B6923F0F0033B613F
:1020DC007B681B013A6913433B617B6923F00A035C
:1020EC007B617A69BB6813437B61FB683A699A61CF
:1020FC00FB687A691A6200BF1C37BD4680BC70470A
:10210C0080B487B000AFF860B9607A60FB681B6A76
:10211C007B61FB681B6A23F01002FB681A62FB6888
:10212C009B693B613B6923F470433B617B681B03F8
:10213C003A6913433B617B6923F0A0037B61BB6865
:10214C001B017A6913437B61FB683A699A61FB68EE
:10215C007A691A6200BF1C37BD4680BC704780B4D8
:10216C0085B000AF786039607B689B68FB60FB686A
:10217C0023F07003FB603A68FB68134343F00703DA
:10218C00FB607B68FA689A6000BF1437BD4680BC60
:10219C00704780B487B000AFF860B9607A603B607C
:1021AC00FB689B687B617B6923F47F437B613B68A5
:1021BC001A027B681A43BB6813437A6913437B6129
:1021CC00FB687A699A6000BF1C37BD4680BC7047BB
:1021DC0080B485B000AF786039607B6893F83C3090
:1021EC00012B01D1022341E07B68012283F83C20C2
:1021FC007B68022283F83D207B681B685B68FB6070
:10220C007B681B689B68BB60FB6823F07003FB60FA
:10221C003B681B68FA681343FB607B681B68FA68B1
:10222C005A607B681B68144A934209D07B681B6810
:10223C00B3F1804F04D07B681B68104A93420CD1D9
:10224C00BB6823F08003BB603B685B68BA681343D0
:10225C00BB607B681B68BA689A607B68012283F854
:10226C003D207B68002283F83C200023184614375D
:10227C00BD4680BC704700BF002C014000040040EC
:10228C0080B483B000AF786000BF0C37BD4680BC13
:10229C00704780B483B000AF786000BF0C37BD4688
:1022AC0080BC704703460244934200D1704703F848
:1022BC00011BF9E770B500260C4D0D4C641BA410E6
:1022CC00A64209D100F01AF800260A4D0A4C641BEC
:1022DC00A410A64205D170BD55F8043B98470136B1
:1022EC00EEE755F8043B98470136F2E74423000823
:1022FC00442300084423000848230008F8B500BF15
:10230C00F8BC08BC9E467047F8B500BFF8BC08BCCA
:04231C009E46704722
:102320000000000000000000010203040607080985
:1023300002030405060708090A0B0C0D0E0F101006
:042340000102000096
:04234400310100085B
:042348000D0100087B
:10234C000100000002000000030000000400000077
:10235C0005000000060000000A0000000024F40044
:08236C00100000000100000058
:0400000508000C9D46
:00000001FF
